:020000040000FA
:10000000A86D0010AD010000B5010000B7010000AF
:10001000B9010000BB010000BD01000000000000AC
:10002000000000000000000000000000BF01000010
:10003000C101000000000000C3010000F901000040
:10004000C7010000651C0000431D0000C70100003F
:10005000C70100009D1200007B100000C7010000D6
:10006000C70100008D1F0000C10C0000C701000087
:10007000C7010000C7010000C7010000C701000060
:10008000C7010000C7010000C7010000A51800005B
:10009000C7010000C3180000C7010000C70100002D
:1000A000C7010000C7010000C7010000C701000030
:1000B000C7010000C7010000C7010000C701000020
:1000C000C7010000C7010000C701000000F002F8EE
:1000D00000F05CF80AA090E8000C82448344AAF186
:1000E0000107DA4501D100F051F8AFF2090EBAE884
:1000F0000F0013F0010F18BFFB1A43F0010318475C
:10010000B4E90400D4E904000A444FF0000C10F8EC
:10011000013B13F0070408BF10F8014B1D1108BF85
:1001200010F8015B641E05D010F8016B641E01F825
:10013000016BF9D113F0080F1EBF10F8014BAD1C75
:100140000C1B09D16D1E58BF01F801CBFAD505E093
:1001500014F8016B01F8016B6D1EF9D59142D6D3ED
:10016000704700000023002400250026103A28BF15
:1001700078C1FBD8520728BF30C148BF0B60704719
:100180001FB50DF02EFE1FBD10B510BD0DF0FCFD0E
:100190001146FFF7F5FF00F027F800F0A0F803B4D0
:1001A000FFF7F2FF03BC0DF015FE00000948804781
:1001B00009480047FEE7FEE7FEE7FEE7FEE7FEE749
:1001C000FEE7FEE7FEE7FEE704480549034A054B64
:1001D0007047000001030000CD000000A86B001074
:1001E000A86D0010A86B001003F0FEFF04F02FF8BC
:1001F00001E00BF011FAFCE70D480068401C0C49C7
:1002000008607047704700BF411EC9B20800FBD1AB
:10021000704700B5024605E0F520FFF7F4FFF52032
:10022000FFF7F1FF1000A2F10102F5D100BD0000BF
:100230000400001018480068174908600846006864
:1002400020F0010008601548006840F003001349E1
:1002500008600846C06940F00300C86170470F4855
:10026000806940F001000D49886170470B48C06902
:1002700040F001000949C86170470848806940F0B2
:1002800002000649886170470448C06940F00200D6
:100290000249C8617047000000C0024000C0092048
:1002A0000C48806940F4C0000A49886170470948D9
:1002B000806940F40010074988610846C06940F42D
:1002C0008000C86170470348C06940F4C00001491C
:1002D000C861704700C009207047704770470446E6
:1002E000AFF300802046FFF75AFF00000048704738
:1002F000486B0010004870474C6B0010FFFFFFFF79
:10030000002020217C4A116000BF7B49096811F060
:10031000400FFAD00721794A11604FF00001784A66
:10032000C2F8A811774A11604FF00101764A1160B6
:100330004FF00F01754A11604FF00101A2F1040264
:1003400011604FF0AA01724A11604FF055016C4ADA
:10035000C2F88C106C490968022906D000BF6D49AB
:10036000096811F0806FFAD004E0002000E0401C22
:100370006428FCD90321684A11604FF0AA01604A41
:10038000C2F88C104FF05501614A11604FF007011F
:10039000624A11606249634A11604FF00001584A95
:1003A000C2F8C8115449096843F23A0241EA02010D
:1003B000534AC2F8A011704756480068C0F3016064
:1003C000032868D15048006810F0030006D00128C7
:1003D00023D002283FD003285CD100E000BF4D4865
:1003E0000068C0F30E0000F101004FEA40014448EC
:1003F000D0F88800C0F3074000F10100B1FBF0F035
:10040000494900FB01F03D490968C9B201F1010108
:10041000B0FBF1F0454908603CE03E480068C0F39D
:100420000E0000F101004FEA40013548D0F8880085
:10043000C0F3074000F10100B1FBF0F03C4900FBC4
:1004400001F02E490968C9B201F10101B0FBF1F0D8
:10045000364908601EE02F480068C0F30E0000F126
:1004600001004FEA40012648D0F88800C0F3074059
:1004700000F10100B1FBF0F04FF4FA4100FB01F094
:100480001E490968C9B201F10101B0FBF1F0274929
:10049000086000BF2FE01C48006810F0030006D081
:1004A000012810D0022819D0032823D100E000BF72
:1004B00012480068C0B200F101001B49B1FBF0F026
:1004C0001A49086016E00D480068C0B200F101004A
:1004D0001749B1FBF0F0154908600BE007480068C8
:1004E000C0B200F101004FF4FA41B1FBF0F00F4946
:1004F000086000BF00BF7047A0C10F4004C10F409B
:1005000000C00F40ACC10F400CC10F4084C00F4071
:100510008CC00F4088C00F4080C00F4008C10F4002
:10052000DEF7EFEFC4C00F4000093D0000000010EF
:10053000001BB70070B931B9FE4AD26942F480326B
:10054000FC4BDA6116E0FB4A926942F48032F94BC7
:100550009A610FE001280DD131B9F64AD26942F013
:100560004002F44BDA6105E0F24A926942F040023F
:10057000F04B9A617047F048006840F48060EF49A2
:10058000C1F8C400EE48006820F48070EC490860AF
:100590000846006820F4007008600846006820F4EF
:1005A000806008600846006820F400600860084623
:1005B000006820F4805008600846006820F400506D
:1005C00008600846006820F480400860084600681B
:1005D00040F4004008600846006820F4803008605D
:1005E0000846006840F4003008600846006820F4BF
:1005F000802008600846006840F400200860CD486C
:10060000006840F01000CB4908600846006840F0E0
:10061000200008600846006840F040000860084676
:10062000C06940F01000C8610846806940F02000B1
:1006300088610846806940F0400088614FF00700FB
:10064000C04908604FF0020048604FF05200086156
:10065000B848806940F04000B6498861704701465B
:10066000B848816000BFB748C06810F0100FFAD1D9
:10067000B4488068C0B2704700B50246AD48C06952
:1006800040F04000AB49C8611046FFF7E8FFA948B9
:10069000806940F04000A749886100BD00B502466E
:1006A000A448C06940F04000A249C861D0B2FFF739
:1006B000D6FFFF20FFF7D3FF03469E48806940F036
:1006C00040009C498861184600BD00B502460B46B3
:1006D0009848C06940F040009649C861D0B2FFF721
:1006E000BEFFD8B2FFF7BBFF9248806940F04000E0
:1006F0009049886100BD10B50520FFF7CFFF20F0BD
:100700001C0421460120FFF7E0FF0620FFF7B4FF9D
:100710008848806940F010008649886110BD10B596
:100720000520FFF7BBFF40F01C0421460120FFF726
:10073000CCFF0420FFF7A0FF7E48C06940F0100006
:100740007C49C86110BD00B505227A48C06940F0F7
:1007500040007849C8610520FFF781FFFF20FFF7BF
:100760007EFF03467348806940F04000714988610C
:1007700001E0501EC2B2002AFBDC03F0010000BD04
:1007800018B50446200C8DF80000200A8DF80100F1
:10079000E0B28DF80200FFF7AEFF6648C06940F096
:1007A00040006449C861D820FFF759FF9DF8000058
:1007B000FFF755FF9DF80100FFF751FF9DF802007C
:1007C000FFF74DFF5B48806940F040005949886160
:1007D00000BFFFF7B8FF0028FBD1FFF7A0FF18BD4F
:1007E00000B5FFF788FFC720FFF746FF00BFFFF700
:1007F000AAFF0028FBD1FFF792FF00BD38B50446E1
:100800000D46200C8DF80000200A8DF80100E0B2A2
:100810008DF80200FFF76FFF4648C06940F04000C6
:100820004449C8610220FFF71AFF9DF80000FFF756
:1008300016FF9DF80100FFF712FF9DF80200FFF779
:100840000EFF2846FFF70BFF3A48806940F0400052
:1008500038498861FFF763FF00BFFFF774FF002886
:10086000FBD138BDF8B504460D461646FFF743FFE9
:100870003048C06940F040002E49C861200C8DF816
:100880000000200A8DF80100E0B28DF8020002207D
:10089000FFF7E5FE9DF80000FFF7E1FE9DF801007F
:1008A000FFF7DDFE9DF80200FFF7D9FE002704E008
:1008B0002878FFF7D4FE781CC7B2B742F8DB1D4892
:1008C000806940F040001B498861FFF728FF00BFA6
:1008D000FFF739FF0028FBD1F8BD08B502461548DF
:1008E000C06940F040001349C861100C8DF8000049
:1008F000100A8DF80100D0B28DF802000320FFF736
:10090000AEFE9DF80000FFF7AAFE9DF80100FFF77C
:10091000A6FE9DF80200FFF7A2FEFF20FFF79FFE54
:1009200003460448806940F0400002498861184647
:1009300008BD000000C00920C4C00F4000C00F4027
:1009400000C0024000000340F8B504460D461646BC
:100950004848C06940F040004649C861200C8DF805
:100960000000200A8DF80100E0B28DF8020003209B
:10097000FFF775FE9DF80000FFF771FE9DF801007E
:10098000FFF76DFE9DF80200FFF769FE002706E005
:10099000FF20FFF764FE05F8010B781CC7B2B742D1
:1009A000F6DB3448806940F040003249886100BF7E
:1009B000FFF7C9FE0028FBD1F8BD70B500BF0023CA
:1009C0002EE0A8B900BF2C4DED6805F01205022DF0
:1009D000F9D10D78284EB560491C00BF264DED6851
:1009E00005F01405042DF9D1234DAD68ECB216E0E5
:1009F000012814D100BF214DED6805F01205022D2C
:100A0000F9D10D781D4EB560491C00BF1B4DED6836
:100A100005F01405042DF9D1184DAD68ECB25B1C3E
:100A20009342CED370BD30B5002320E070B9FF24CF
:100A3000114DAC6000BF104CE46804F01404042CA9
:100A4000F9D10D4CA46801F8014B0FE001280DD13C
:100A5000FF240A4DAC6000BF084CE46804F01404A5
:100A6000042CF9D1054CA46801F8014B5B1C93429E
:100A7000DCD330BD00C009200080084000000340E6
:100A800010B5002807DACA06140EFE4A00F00F035C
:100A90001B1FD45403E0CA06130EFB4A135410BDA7
:100AA0000146FA480078012800D170470CE0002286
:100AB00005E0F6480078012800D1F6E7521C41F223
:100AC00088308242F5D3491E0029F0D10020ECE79E
:100AD00010B50446EE48006840F40020ED49C1F826
:100AE000C400ED48406820F07070EB49486008464B
:100AF000406840F0A07048604FF06C00E7498861A2
:100B0000E748844200D90446E648B0FBF4F0401CB4
:100B10004008E2490861E348B0FBF4F0400848614E
:100B20002C208861402008600A2000F0E9F940206C
:100B3000DA49086018210620FFF7A2FF10BD0A203D
:100B400001218140D84A430942F8231000BF704771
:100B500010B50A2000F0D4F94020D04908601821CF
:100B60000620FFF78DFF10BD03B50346CF48037085
:100B700001A8CF4908600120CE4908600020CE4975
:100B80000870C24908702C20C44988616020086040
:100B90001420FFF785FF0CBD10B504460B46601C02
:100BA000C2490870C24803600120C24908600020A1
:100BB000C1490870B54908702C20C049886160207F
:100BC00008601420FFF76CFF10BDF0B505460E4617
:100BD0001446059F002F35D0012E07D1681CB3495C
:100BE0000870B74804600120B6490870022E07D18A
:100BF000681CAE490870B24804600220B149087010
:100C0000032E0CD10E2000EAD4102844401CA74922
:100C10000870E0B2AA4908600120AA490870A448F7
:100C20000360A44807600120A34908700020974989
:100C300008702C2099498861602008601420FFF713
:100C40002FFFF0BD0020FCE7F0B505460E46144628
:100C5000059F002F32D0012E06D194480570984888
:100C60000460012097490870022E06D18F48057054
:100C700093480460022093490870032E0BD10E2084
:100C800000EAD410284489490870E0B28C49086011
:100C900001208C490870864803608648076002205E
:100CA000854908700020794908702C207B498861AB
:100CB000602008601420FFF7F3FEF0BD0020FCE781
:100CC0007648406800F0F80010F0070F79D1C010A6
:100CD0000C2876D2DFE800F075061920B421B5B6ED
:100CE000A5B7BEFE74480078012806D16F48007889
:100CF00000F0FE006949886003E06C4800786749AD
:100D00008860282065498861F8E068480078634970
:100D1000886028208861F1E000BF67480078E8B962
:100D20006448006890B16248006800785B49886058
:100D30005F480068401C5E49086028205749886168
:100D40005C480068401E5B49086007E0102053497A
:100D500008602820886101204C49087056480078B6
:100D600001282FD15748007802280DD15448006837
:100D7000C0F30720494988602820886151480078DD
:100D8000401E50490870B9E04E48007801280CD147
:100D90004B480068C0B241498860282088614948B2
:100DA0000078401E47490870A8E04648007848B9D6
:100DB00008203A4988612020086000203E490870D8
:100DC0009CE09AE03C480078022829D13D48007810
:100DD000002825DD3B48007802280DD138480068FE
:100DE000C0F307202D4988602820886135480078A5
:100DF000401E3449087081E03248007801280FD144
:100E00002F480068C0B225498860282088612D4895
:100E10000078401E2B4908700020274908706DE0BB
:100E20006CE024480068012803D804201B4988612D
:100E300002E00420194908602820184988615DE013
:100E400000BF00BF00BF282014498861FF200F4960
:100E5000087053E011488068154909680870144803
:100E60000068401C1249086012480068401E114981
:100E7000086008460068012826D12C2007498861AF
:100E800027E027E018ED00E000E400E01C0000107F
:100E9000C4C00F4000C00F4000C0024000C001406D
:100EA000801A060000366E0180E100E008000010A4
:100EB00014000010180000101D00001000C00540B4
:100EC0000C000010100000100420134908602820B6
:100ED000886113E0104880681049096808700F485D
:100EE0000068401C0D49086010200B49086028204C
:100EF000886101200A49087000E000BF00BF704708
:100F000000F01F020121914042094FF0E02303EB62
:100F10008202C2F80011704700C0014014000010A6
:100F20001C00001010B5002807DACA06140EFD4A8E
:100F300000F00F031B1FD45403E0CA06130EFA4A35
:100F4000135410BD002004E00021F84A1154411C44
:100F5000C8B20C28F8DB704770B5002417E00025F4
:100F600011E004EBC401C1EB841101F5A021481983
:100F7000FFF7B3FC04EBC401C1EB8411EC4A11444C
:100F80004855681CC5B2372DEBDB601CC4B2642C1D
:100F9000E5DB70BD024602EBC200C0EB8210E44B01
:100FA0001844405C70470020E2490870704730B533
:100FB00002460B46002114E001EBC104C4EB81148E
:100FC000DB4D2C446478944209D101EBC104C4EB9D
:100FD00081142C44A4789C4201D1084603E04C1CA7
:100FE000E1B26429E8DB00BF30BD0146D248405C75
:100FF0007047002004E00021CF4A1154411CC8B2C0
:101000000928F8DB704770B54FF4E020FFF7B8FB14
:10101000CA4801784FF4E020FFF7F0FB4FF4A0201E
:10102000FFF7AEFB002417E0002511E004EBC4023B
:10103000C2EB8412BE4B1A44515D04EBC402C2EBF6
:10104000841202F5A0225019FFF7D8FB681CC5B224
:10105000372DEBDB601CC4B2642CE5DB70BD10B532
:101060004FF4E020FFF739FCB449087008460078D7
:10107000FF2801D10020087010BD10B5AD480078E0
:1010800009287ADAAE480068AB49AA4A127888542F
:1010900008460078822805D1A6480078401CA5495A
:1010A000087002E00020A3490870A348407838285F
:1010B00008D100209F49087009F030FC002009F099
:1010C00051FD5AE09B480078092856D100209949E3
:1010D000087009F023FC02F091F908B39648817872
:1010E000002008F085FC9448C178012008F080FCBD
:1010F00091480179022008F07BFC8F484179032058
:1011000008F076FC8C488179042008F071FC8A484C
:10111000C179052008F06CFC0921412008F06FFC22
:1011200007F08EFF48B3844CA378E2782179607988
:1011300008F0D0FC08BB20468178002008F058FC5D
:101140002046C178012008F053FC20460179022096
:1011500008F04EFC20464179032008F049FC204667
:101160008179042008F044FC2046C179052008F06C
:101170003FFC0921412008F042FC10BD7148007875
:1011800070472DE9F0410027002500266D480078C2
:10119000012877D100241AE06B48005D1F2804D194
:1011A0008021694A601D115427466748005D20B9B7
:1011B000BC4202DD681CC5B200E00025042D04D14C
:1011C0008721E01E604A11540025601C84B2B4F5EA
:1011D000FA6FE1DB002443E05B48005D802814D116
:1011E0005948015D5548007800EBC002C2EB801001
:1011F0004F4A0244554803780078401CDFF84CC140
:101200008CF80000D154012621E0012E1FD14E4858
:10121000015D4A48007800EBC002C2EB8010444AEE
:1012200002444A4803780078401CDFF820C18CF85B
:101230000000D1544448005D872808D13F48007819
:10124000401C3E49087000206146087000263B485B
:101250000078642802D1002038490870601C84B2EC
:10126000B4F5FA6FB8DB002404E0002036490855D5
:10127000601C84B2B4F5FA6FF7DBFFF7C4FE002000
:1012800030490870BDE8F081704700BF30494969B6
:1012900011F0200FFAD02E490860704710B50AF0FF
:1012A00098FD00285CD02A4800682749294A1288FE
:1012B0008854084627490988405C20280DD12548D4
:1012C0000088142809DD204822490988405C224909
:1012D000087020480088214908801B491F48008861
:1012E000C01C085C6E2811D11C480088801C085C5A
:1012F00060B91A480088401C085C38B900201549BC
:1013000008801649088001200E4908700E49114ACC
:101310001288885CFFF7B9FF0E480088401C0D4911
:1013200008803CE018ED00E000E400E04D1B0010F8
:10133000D10500101E000010C8050010210000108B
:101340000000014026000010591B00101F00001073
:1013500000C00040220000102923001024000010CB
:101360009C4800689C499D4A127888540846007839
:10137000FF2805D199480078401C9849087002E080
:101380000020964908709448C07A832807D100202D
:1013900092490870012009F040FCFFF7D3FD10BD11
:1013A0002DE9F04107468846002F41D18C4800685E
:1013B00020F0F0008A4908600846006840F05000BC
:1013C000086088480068C0F3811636B1012E08D045
:1013D000022E09D0032E0BD000BF8348006884087A
:1013E0000AE08148046807E07F480068440803E099
:1013F0007D480068C40800BF00BF83207549C860ED
:101400002009B0FBF8F5280A4860E8B2086003201C
:10141000C86007208860052000F0C7F801206D49EA
:10142000486020210520FFF77DFD0120BDE8F08107
:10143000012F40D16A48006920F00F006849086117
:101440000846006940F00A00086166480068C0F379
:10145000012636B1012E08D0022E09D0032E0BD062
:1014600000BF6148006884080AE05F48046807E03C
:101470005D480068440803E05B480068C40800BF9A
:1014800000BF83205949C8602009B0FBF8F5280A3D
:101490004860E8B208600320C86007208860062022
:1014A00000F083F801205149486008210620FFF729
:1014B00039FD0120BAE70020B8E710B5052000F09B
:1014C00080F8062000F07DF810BD10B501204149DC
:1014D000486046494860052000F067F82021052053
:1014E000FFF720FD062000F060F808210620FFF736
:1014F00019FD10BD10B540B904E011F8013B354CA1
:101500002360521E002AF8D107E004E011F8013BE5
:10151000364C2360521E002AF8D110BD00BF33495B
:10152000496911F0200FFAD030490860704700B5C2
:10153000024603E012F8010BFFF7A7FE107800281F
:10154000F8D100BD00B5024603E012F8010BFFF729
:10155000E5FF10780028F8D100BD00BF2349496994
:1015600011F0010FFAD021490868704700BF1949EE
:10157000496911F0010FFAD016490868704700B5A3
:1015800003460A4603E0FFF7E8FF01C3521E002AA4
:10159000F9D100BD00B503460A4603E0FFF7E6FFB8
:1015A00001C3521E002AF9D100BD00F01F02012123
:1015B000914042094FF0E02303EB8202C2F8001190
:1015C000704700F01F0201219140094A430942F887
:1015D0002310704700C000404D1B00102000001079
:1015E00000C00240A8C10F400000001000000140F0
:1015F00080E100E06F48406820F001006D494860DC
:101600000846406820F0010048600846006820F065
:10161000010008600846006820F0010008600846E4
:10162000406820F0010048600846406820F0010052
:1016300048600846406820F001004860084640685D
:1016400020F0010048600846C06820F00100C86032
:101650000846C06820F00100C8600846C06820F055
:101660000100C8600846C06820F00100C860084654
:10167000C06820F00100C8600846C06820F0010082
:10168000C8600846C06820F00100C8600846C0680D
:1016900020F00100C8600846C06820F00100C86062
:1016A0000846C06820F00100C8600846C06820F005
:1016B0000100C8600846C06820F00100C860084604
:1016C000C06820F00100C8600846C06820F0010032
:1016D000C8600846006920F00100086108460069FA
:1016E00020F0010008610846006920F0010008614F
:1016F0000846006920F0010008610846406848601B
:101700000846006920F0010008610846006920F0E1
:10171000010008610846006920F0010008612648C0
:10172000006840F4C200244908600846006820F4BC
:10173000806008600846006820F400600860084681
:10174000006820F0007008600846006820F08060A3
:1017500008600846006820F00050086008460068ED
:1017600020F0804008600846006A14490843124986
:1017700008620846006C40F45F700864084680699F
:1017800040F4C00088610846C06B0D4908430A490F
:10179000C8630846C06D40F45E70C8650846806D39
:1017A00040F4017088650846806D40F0C07088651F
:1017B0007047000000C0024000C009200000FCFF8C
:1017C0000300E00110B5002807DACA06140E7C4AAF
:1017D00000F00F031B1FD45403E0CA06130E794A0E
:1017E000135410BD10B57848006940F48000764964
:1017F00008617648006840F002007549C1F8480168
:101800000846D0F84C0120F00200C1F84C014FF01E
:10181000130000F0BFF828211320FFF7D3FF10BDFD
:1018200010B56948406820F0010067494860694880
:10183000006820F40000674908606348406820F0B1
:101840000100614948606348006820F08070614988
:1018500008604FF08070604908604FF0150000F09C
:1018600099F800211520FFF7ADFF10BD10B513202A
:1018700000F09CF8152000F099F810BD10B5132069
:1018800000F088F828211320FFF79CFF152000F0B6
:1018900081F800211520FFF795FF10BD01204F4969
:1018A0000870704700B502204D490860FFF7F6FF49
:1018B00000BD00204B49087070470120494908705D
:1018C000704710B548480068401C47490860084602
:1018D000006800F07F0008600846006810F0010F03
:1018E00018D0424800684249D1F8841040EA01000B
:1018F0003E4908604FF080703D49C1F894004FF0B8
:10190000010001F090FFFEF7CBFC00F02FFBFFF78A
:10191000D4FF16E009F098FA344800683449D1F849
:10192000881040EA0100314908604FF0807030496A
:10193000C1F8900000F01AFB002001F074FFFFF7DF
:10194000B8FF10BD00202549087070472348007873
:1019500070472448007870474FF080702549086030
:1019600070474FF080701C49086070471F4800683E
:101970001F49D1F8881040EA01001C4908607047EF
:101980001A4800681A49D1F8841040EA0100174942
:101990000860704700F01F020121914042094FF09A
:1019A000E02303EB8202C2F80011704700F01F022F
:1019B00001219140104A430942F82310704700006A
:1019C00018ED00E000E400E000C0024048C10F4014
:1019D00000C00F4000C00920908002402C00001081
:1019E00040C10F402D000010300000108C800240DC
:1019F000008002409480024080E100E010B50028A1
:101A000007DACA06140EF84A00F00F031B1FD4545D
:101A100003E0CA06130EF54A135410BD70B505460F
:101A20000C461DBBF248006840F00200F149C1F8C5
:101A3000C4004FF000004FF0402108674FF0020053
:101A400048604FF0010008604FF000008860C860F7
:101A5000084684614FF0030048614FF00100486080
:101A600000F019FA10210120FFF7C8FF012D24D141
:101A7000DF48006840F00400DE49C1F8C4004FF0C0
:101A80000000DD4908674FF0020048604FF0010098
:101A900008604FF000008860C860084684614FF01D
:101AA000030048614FF0020000F0F5F930210220F8
:101AB000FFF7A4FF0120D0494860022D16D1002075
:101AC000CE49086702204860012008600020886035
:101AD000C860084684610320486100F0DCF94821B1
:101AE0000320FFF78BFF0120C4494860032D17D165
:101AF0000020C349086702204860012008600020D8
:101B00008860C8600846846103204861042000F0B2
:101B1000C2F950210420FFF771FF0120B849486045
:101B200070BD10B5B248006840F00200B149C1F87C
:101B3000C4004FF000004FF0402108674FF0020052
:101B400048604FF00F0008604FF000008860C860E8
:101B5000AC48006849F64041B0FBF1F04FF040213D
:101B600088614FF0030048614FF0010000F093F9E5
:101B700010210120FFF742FF01204FF04021486073
:101B800010BD10B59A48006840F004009949C1F8AA
:101B9000C4004FF00000984908674FF00200486009
:101BA0004FF00F0008604FF000008860C860954853
:101BB000006849F64041B0FBF1F04FF0C80100FB6E
:101BC00001F08D4988614FF0030048614FF0020039
:101BD00000F061F930210220FFF710FF0120864953
:101BE000486010BD88490870704787480078704782
:101BF00086490860704785480068704784480088B7
:101C0000401C83490880704781490880704780489C
:101C10000088704710B57F480068A0F59851883952
:101C200002D101F094FB1CE07A480068A0F51C5139
:101C3000103902D101F07DFB13E076480068A0F571
:101C40006851983902D101F0EFFA0AE07148006852
:101C5000A0F59C41203904D101F0D8FA00206D494B
:101C6000086010BD10B500F07BF967480078401C93
:101C70006549087065480068401C6449086064480C
:101C80000088401C6249088009F0E0F909F0ECF98D
:101C900009F009FD0AF097F830B95E480068401C69
:101CA0005C490860FFF7B6FF09F03DF901204FF0ED
:101CB0004021086010BD10B5002008F05CFF01282D
:101CC0001BD155480068142806D100F0B3F9002153
:101CD000524800F0A3F908E04F480068322804D1C8
:101CE00000F0AFF900204C4908604B4800683228EA
:101CF00026D300204849086022E0002008F03BFF7E
:101D000002281BD144480068282806D100F092F927
:101D10000021434800F082F908E03F48006832287B
:101D200004D100F08EF900203B4908603A48006871
:101D3000322805D300203849086001E000F081F91D
:101D400010BD10B501F0B5F836480068401C3549A3
:101D500008600846006840F6B83188420DD3324822
:101D600040693249084208D02F48C06D40F40070E5
:101D70002D49C86500202B4908600AF024F830B9C5
:101D800025480068401C24490860FFF794FF0F2095
:101D90001949086010BD2448806D40F40070224944
:101DA000886500201F490860704720B901214FF065
:101DB0004022516010E0012803D101210E4A5160F8
:101DC0000AE0022803D101210C4A516004E00328F3
:101DD00002D101210A4A5160704720B900214FF019
:101DE0004022516035E023E018ED00E000E400E01F
:101DF000C4C00F4000C00F400080004000000940F8
:101E000000400940000000103400001038000010AD
:101E10003C0000104000001044000010A0860100AB
:101E2000400D03004800001000C00920000C0066AF
:101E3000012803D100211E4A51600AE0022803D183
:101E400000211C4A516004E0032802D100211A4AF3
:101E500051607047014631B94FF04022506840F060
:101E60000200506016E0012905D1114A506840F087
:101E7000020050600EE0022905D10E4A506840F081
:101E80000200506006E0032904D10B4A506840F07C
:101E900002005060704700F01F020121914042098A
:101EA0004FF0E02303EB8202C2F8001170470000FC
:101EB0000080004000000940004009402F480068B1
:101EC000704700F003012E4A52F821102B4A11608E
:101ED0007047014601F00300294A52F8200070477C
:101EE0002848006849F64041B0FBF1F070472548AA
:101EF000006849F64041B0FBF1F000EB40004000C3
:101F000070472048006849F64041B0FBF1F000EB13
:101F10008000800070471B48006849F64041B0FBD4
:101F2000F1F03221484370471648006849F64041B5
:101F3000B0FBF1F000EB8000000170471148006831
:101F400049F64041B0FBF1F06421484370470D4829
:101F5000006849F64041B0FBF1F0C82148437047A2
:101F600009480068401C084908607047002006497D
:101F70000860704704480068704700004C0000107B
:101F80005400001000000010500000102F49086895
:101F900010F0010F04D02E490968491C2C4A116029
:101FA0002A4909680143294A1160704700202849DD
:101FB00008602848006840F040002749C1F8C40084
:101FC0000846D0F8A80120F44050C1F8A8012348E1
:101FD000006940F04000214908614FF002001B49B0
:101FE00048604FF00000C8604FF0010048614FF0BA
:101FF0000000886108644FF0100008654FF0090088
:102000004FF0010101FA00F14FEA50124FF0E023C6
:1020100003EB8202C2F8001100BF70470B4A9061C7
:1020200042000323B2FBF3F20A44084B1A64102265
:102030001A6570474FF480500449C864092048600D
:10204000704700200149C864486070470080014023
:1020500068000010C4C00F4000C00F4000C0024024
:10206000014606E040F6B83200E0521E002AFCDCD1
:10207000491E0029F6DC704710B50146002000BF5C
:1020800021E0FE4A126A00F1180301249C40224319
:10209000FA4B1A62012282400A4209D01A46526B58
:1020A00000F1180301249C402243F44B5A6308E0DA
:1020B000F24A526B00F1180301249C40A243EF4BFB
:1020C0005A63421CD0B20828DBDB10BD10B5EB48C8
:1020D000C06B40F48020E949C8630846806B40F437
:1020E0000020886300BF0020FFF7C6FFE348806B35
:1020F00040F48010E14988630846C06B40F48010CA
:10210000C8630846006A20F4004008620846406B35
:1021100000200446002CE6D110BD10B50446FFF7A0
:10212000D5FFD648C06B40F48020D449C863084628
:10213000C06B40F40020C8632046FFF79DFFCF48E6
:10214000806B40F48010CD4988630846C06B40F432
:102150008010C86310BD10B5044644F0B804204692
:10216000FFF7DBFF10BD10B5044644F0C004204665
:10217000FFF7D3FF10BD10B5044604F03F0444F050
:1021800040042046FFF7C9FF10BD10B5044644F0D7
:102190003E042046FFF7C1FF10BD10B50446FFF70F
:1021A00095FFB648806B40F48020B44988630846A8
:1021B000C06B40F40020C8632046FFF75DFFAF48C6
:1021C000806B40F48010AD4988630846C06B40F4D2
:1021D0008010C86310BD10B50446FFF777FFA7480D
:1021E000806B40F48020A54988630846C06B40F4AA
:1021F0000020C8630846806B40F48010886308465E
:10220000C06B40F48010C86310BD10B50446FFF7E2
:102210005DFF9A48806B40F48020984988630846A7
:10222000C06B40F40020C863E043C4B22046FFF70F
:1022300023FF9248806B40F48010904988630846E1
:10224000C06B40F48010C86310BD20B101280ED0CF
:10225000022824D117E08949896B41F40011874A8B
:1022600091631146896B41F48001916317E08349C2
:10227000896B41F40011814A91631146C96B41F4A5
:102280008001D1630BE07D49C96B41F400117B4AA9
:10229000D1631146896B41F48001916300BF00BF97
:1022A000704770B506463046FFF7CFFF002410E0B8
:1022B0002046FFF750FF0020FFF75DFF002504E0F8
:1022C0000020FFF76AFF681CC5B2402DF8DB601CD8
:1022D000C4B2082CECDB70BD70B506463046FFF783
:1022E000B4FF002410E02046FFF735FF0020FFF781
:1022F00042FF002504E00020FFF74FFF681CC5B235
:102300000A2DF8DB601CC4B2072CECDB70BD002189
:1023100007E0002201E0531CDAB26E2AFBDB4B1C03
:10232000D9B28142F5DB70470146002006E000206B
:1023300000E0401C41F288329042FAD30A00A1F139
:102340000101F4D1704700B5FFF7C0FE0020FFF790
:102350007CFF0020FFF719FF0020FFF776FF012028
:10236000FFF713FF0020FFF770FF0020FFF799FF32
:102370000020FFF7F8FE00BD70472DE9F04788B058
:1023800082460F46904699465046FFF75EFF08F09A
:102390003F083846FFF7DFFE4046FFF7ECFE384EB9
:1023A00009F0FF00A138A121C1EB2921C1EB0112E5
:1023B00002EB411100EB410006EB4016002408E05F
:1023C00016F8010B04A9085500200DF80400601C44
:1023D000C4B2102CF4DB002518E0002412E004A89D
:1023E00010F81400C5F1070201219140084207D0FE
:1023F0001DF805100120A0400844C0B20DF80500EA
:10240000601CC4B2082CEADB681CC5B2082DE4DBF2
:1024100000251EE0002418E0012000EB440004A980
:10242000085CC5F107020121914008420BD005F17B
:1024300008001DF800100120A0400844C1B205F1B9
:1024400008000DF80010601CC4B2082CE4DB681C06
:10245000C5B2082DDEDB002405E01DF80400FFF7FF
:10246000D4FE601CC4B2102CF7DB781CC0B2FFF79E
:1024700072FE4046FFF77FFE00240CE000C00920FA
:1024800050EA000016F8010B04A9085500200DF8C9
:102490000400601CC4B2102CF4DB002518E00024FA
:1024A00012E004A810F81400C5F1070201219140C0
:1024B000084207D01DF805100120A0400844C0B212
:1024C0000DF80500601CC4B2082CEADB681CC5B21C
:1024D000082DE4DB00251EE0002418E0012000EBBD
:1024E000440004A9085CC5F107020121914008429B
:1024F0000BD005F108001DF800100120A040084491
:10250000C1B205F108000DF80010601CC4B2082C1F
:10251000E4DB681CC5B2082DDEDB002405E01DF8F5
:102520000400FFF772FE601CC4B2102CF7DB08B089
:10253000BDE8F0872DE9F04788B082460F46904607
:1025400099465046FFF781FE08F03F083846FFF7EE
:1025500002FE4046FFF70FFEE64E09F0FF00A138ED
:10256000A121C1EB2921C1EB011202EB411100EBCA
:10257000410006EB4016002408E016F8010B04A900
:10258000085500200DF80400601CC4B2102CF4DBC8
:10259000002518E0002412E004A810F81400C5F18A
:1025A000070201219140084207D01DF805100120C3
:1025B000A0400844C0B20DF80500601CC4B2082C4D
:1025C000EADB681CC5B2082DE4DB00251EE0002410
:1025D00018E0012000EB440004A9085CC5F10702E3
:1025E0000121914008420BD005F108001DF80010B0
:1025F0000120A0400844C1B205F108000DF8001008
:10260000601CC4B2082CE4DB681CC5B2082DDEDBFC
:10261000002405E01DF80400FFF7BFFD601CC4B2F4
:10262000102CF7DB781CC0B2FFF795FD4046FFF792
:10263000A2FD002408E016F8010B04A908550020AB
:102640000DF80400601CC4B2102CF4DB002518E067
:10265000002412E004A810F81400C5F107020121BB
:102660009140084207D01DF805100120A040084401
:10267000C0B20DF80500601CC4B2082CEADB681C6F
:10268000C5B2082DE4DB00251EE0002418E001207F
:1026900000EB440004A9085CC5F107020121914048
:1026A00008420BD005F108001DF800100120A040E1
:1026B0000844C1B205F108000DF80010601CC4B256
:1026C000082CE4DB681CC5B2082DDEDB002405E025
:1026D0001DF80400FFF761FD601CC4B2102CF7DB8D
:1026E00008B0BDE8F0872DE9F04180460D4616465A
:1026F0001F464046FFF7A9FD06F03F062846FFF7B4
:102700002AFD3046FFF737FD002407E0202101FBBA
:102710000741794A505CFFF740FD641C102CF5D34B
:10272000681CC0B2FFF717FD3046FFF724FD0024F8
:1027300008E0202101FB074110316F4A505CFFF790
:102740002CFD641C102CF4D3BDE8F0812DE9F04180
:1027500007460D46164698463846FFF776FD06F0C2
:102760003F062846FFF7F7FC3046FFF704FD00243C
:1027700000E0641C102CFCD3681CC0B2FFF7EBFC1B
:102780003046FFF7F8FC002400E0641C102CFCD35A
:10279000BDE8F0812DE9F04180460D4616461F4602
:1027A0004046FFF752FD06F03F062846FFF7D3FCF0
:1027B0003046FFF7E0FC002407E0102101FB074151
:1027C0004E4A505CFFF7E9FC641C082CF5D3681CEA
:1027D000C0B2FFF7C0FC3046FFF7CDFC002408E094
:1027E000102101FB07410831444A505CFFF7D5FC3A
:1027F000641C082CF4D3BDE8F08170472DE9F0414A
:1028000080460D4616461F464046FFF71EFD06F061
:102810003F062846FFF79FFC3046FFF7ACFC00243C
:1028200006E0374901EB0711085DFFF7B6FC641CB1
:10283000082CF6D3681CC0B2FFF78DFC3046FFF7BA
:102840009AFC082406E02E4901EB0711085DFFF70A
:10285000A4FC641C102CF6D3BDE8F0812DE9F041F6
:1028600080460D4616461F464046FFF7EEFC06F032
:102870003F062846FFF76FFC3046FFF77CFC00243C
:1028800006E01F4901EB0711085DFFF7BEFC641C61
:10289000082CF6D3681CC0B2FFF75DFC3046FFF78A
:1028A0006AFC082406E0164901EB0711085DFFF7F2
:1028B000ACFC641C102CF6D3BDE8F0812DE9F0418E
:1028C00080460C4615461E464046FFF7EAFC204669
:1028D000FFF741FC2846FFF74EFC002704E0FF20ED
:1028E000FFF75BFC781CC7B2F000B842F7DCBDE82C
:1028F000F081000050EA0000F0DD00008C010010C3
:102900006C0000103EB5044620780A2190FBF1F2DD
:1029100001FB120021780A2291FBF2F140EA01103A
:10292000C0B28DF8040060780A2190FBF1F201FB3F
:10293000120061780A2291FBF2F140EA0110C0B264
:102940008DF80500A0780A2190FBF1F201FB12003E
:10295000A1780A2291FBF2F140EA0110C0B28DF891
:102960000600E0780A2190FBF1F201FB1200E17809
:102970000A2291FBF2F140EA0110C0B28DF8070083
:1029800020790A2190FBF1F201FB120021790A2241
:1029900091FBF2F140EA0110C0B28DF808006079B5
:1029A0000A2190FBF1F201FB120061790A2291FBEE
:1029B000F2F140EA0110C0B28DF80900E088B0F5EC
:1029C000FA6F17DB9DF8090040F080008DF80900D0
:1029D000E088A0F5FA60C5B20A2095FBF0F100FB93
:1029E00011500A2195FBF1F140EA0110C0B28DF8B7
:1029F0000A0010E0E088A0F26C70C5B20A2095FBD6
:102A0000F0F100FB11500A2195FBF1F140EA0110B1
:102A1000C0B28DF80A00072001AB0222012100900C
:102A2000A220FEF711F93EBD3EB50446072001ABDA
:102A3000022201210090A220FEF7C7F808B9002069
:102A40003EBD9DF8040000F00F009DF80410C1F396
:102A5000021101EB810100EB410020709DF805009F
:102A600000F00F009DF80510C1F3021101EB810188
:102A700000EB410060709DF8060000F00F009DF82B
:102A80000610C1F3011101EB810100EB4100A070C0
:102A90009DF8070000F00F009DF80710C1F3011129
:102AA00001EB810100EB4100E0709DF8080000F0AF
:102AB00007009DF8081001F00701091101EB8101E1
:102AC00000EB410020719DF8090010F0800F1BD031
:102AD0009DF8090000F00F009DF80910C1F30011E6
:102AE00001EB810100EB410060719DF80A0000F0EC
:102AF0000F009DF80A10091101EB810100EB410064
:102B000000F5FA60E0801AE09DF8090000F00F007F
:102B10009DF80910C1F3001101EB810100EB4100A8
:102B200060719DF80A0000F00F009DF80A1009116D
:102B300001EB810100EB410000F26C70E0800120AC
:102B40007EE71CB50446012C02D10020019001E073
:102B500020200190012001AB002201460090A2201C
:102B6000FEF772F81CBDFEB505460C460127082D80
:102B70003CD1022002AB072201210090A220FEF7E7
:102B800024F807409DF8080000F09F008DF8080029
:102B9000B4F5FA6F0BDA9DF8080040F080008DF86C
:102BA0000800A4F26C70C0B28DF809000AE09DF82C
:102BB000080020F080008DF80800A4F5FA60C0B28B
:102BC0008DF809009DF809000A2190FBF1F201FB44
:102BD00012009DF809100A2291FBF2F140EA01105F
:102BE000C0B28DF809000226072541E0072D2AD141
:102BF000012001AB072201460090A220FDF7E5FF6E
:102C000007409DF8040000F080000190E0B28DF8CC
:102C100008009DF808000A2190FBF1F201FB120068
:102C20009DF808100A2291FBF2F140EA0110C0B2AF
:102C30008DF808009DF808009DF8041008438DF8F1
:102C40000800012614E0E0B28DF808009DF80800A5
:102C50000A2190FBF1F201FB12009DF808100A22F4
:102C600091FBF2F140EA0110C0B28DF80800012694
:102C700002AB2A460121A2200096FDF7E5FF07409E
:102C80003846FEBD1CB50446082C27D1022001ABF6
:102C9000072201210090A220FDF797FF08B900202C
:102CA0001CBD9DF8050000F00F009DF805100911EE
:102CB00001EB810100EB4100C0B28DF805009DF8E9
:102CC000040010F0800F04D09DF8050000F26C7035
:102CD000E6E79DF8050000F5FA60E1E7012001ABA9
:102CE000224601460090A220FDF76FFFA01E062895
:102CF00022D2DFE800F004030B0C1A1300BF9DF88A
:102D0000040000F07F008DF8040016E000BF9DF87D
:102D1000040000F03F008DF804000EE09DF8040070
:102D200000F01F008DF8040007E09DF8040000F09B
:102D300007008DF8040000E000BF00BF9DF804000C
:102D400000F00F009DF80410091101EB810100EB68
:102D50004100C0B28DF804009DF80400A0E701B561
:102D600082B0012002AB0D2201460090A220FDF7A7
:102D70006BFF0EBD7CB504460D460020019014F09B
:102D8000800F0CD10A2095FBF0F100FB11500A21B5
:102D900095FBF1F140EA0110C0B2019001E0802002
:102DA000019004F00F04012001ABA21D0146009028
:102DB000A220FDF749FF7CBD7CB504460D468DF889
:102DC00004408DF80550022001AB0E220121009035
:102DD000A220FDF739FF7CBD7CB5044600200190A0
:102DE00004F08000802817D104F01F00019001201A
:102DF00001AB024601460090A220FDF725FF01200D
:102E000001AB024601460090A220FDF7DEFE9DF8D0
:102E1000040000F01F007CBD04F0400040281AD1DF
:102E2000012001AB024601460090A220FDF7CDFE35
:102E30009DF8040000F01F059DF8040000F0130049
:102E40000190012001AB024601460090A220FDF74F
:102E5000FBFE2846DFE70020DDE710B50020FFF786
:102E600070FE40F2DD700E49C880012048711720C5
:102E7000C870032008710A208870092048701E203D
:102E800008700846FFF73EFD40218120FFF794FFC0
:102E90009120FFF7A1FF0120FFF753FE10BD0000B6
:102EA000FC040010CF48007870470020CD4908701E
:102EB000704710B5CC48406910F4806F24D10F20C2
:102EC000FDF7A7F9C848406910F4806F1FD1C748C3
:102ED0000068401CC54908600846006810B1012020
:102EE000FEF77BFFFEF757FF00BFBF48406910F4B5
:102EF000806FFAD10F20FDF78CF900BFBA48406906
:102F000010F4806FFAD110BD0020B8490860B648AF
:102F1000406910F4006F2DD10F20FDF77AF9B24807
:102F2000406910F4006F28D1B0484068401CAF4998
:102F300048600846406810B10120FEF74EFF0021AE
:102F4000084607F015FE06F027FD08B100F0F8F975
:102F5000FEF721FF00BFA448406910F4006FFAD1CA
:102F60000F20FDF756F900BF9F48406910F4006F2D
:102F7000FAD1C8E700209D4948609B48406910F09D
:102F8000007F29D10F20FDF744F99748406910F0E0
:102F9000007F24D195488068401C94498860084689
:102FA000806810B10120FEF718FF06F0F5FC08B9A3
:102FB00000F033F9FEF7EFFE00BF8B48406910F0D8
:102FC000007FFAD10F20FDF724F900BF8648406941
:102FD00010F0007FFAD196E700208449886082488B
:102FE000406910F0806F24D10F20FDF712F97E4860
:102FF000406910F0806F1FD17C48C068401C7B493D
:10300000C8600846C06810B10120FEF7E6FEFEF772
:10301000C2FE00BF7448406910F0806FFAD10F20E3
:10302000FDF7F7F800BF7048406910F0806FFAD1E3
:1030300069E700206D49C8606B48406910F0804F17
:1030400024D10F20FDF7E5F86748406910F0804F64
:103050001FD166480069401C644908610846006940
:1030600010B10120FEF7B9FEFEF795FE00BF5E48E5
:10307000406910F0804FFAD10F20FDF7CAF800BF69
:103080005948406910F0804FFAD13CE70020574979
:1030900008615548406910F0005F24D10F20FDF70A
:1030A000B8F85148406910F0005F1FD14F4840699F
:1030B000401C4E4948610846406910B10120FEF7A6
:1030C0008CFEFEF768FE00BF4748406910F0005FC5
:1030D000FAD10F20FDF79DF800BF4348406910F07A
:1030E000005FFAD10FE700204049486100BF0AE7BE
:1030F00010B53E48006860B13B48406910F4806FED
:1031000007D00120FEF751FE002038490860042056
:1031100010BD36484068C0B13348406910F4006FB4
:1031200013D00120FEF741FE0020304948602E48B0
:10313000C06D40F008002C49C865FEF782FF0021F1
:10314000084607F05DFD0620E2E72848806860B188
:103150002548406910F0007F07D00120FEF725FECA
:103160000020224988600520D2E72048C068B8B115
:103170001D48406910F0806F12D00120FEF715FE47
:1031800000201A49C86009F0F0FE10B1FFF78DFE6B
:1031900004E014480078401C124908700120B7E789
:1031A0001248006960B11048406910F0804F07D0A4
:1031B0000120FEF7FAFD00200C4908610220A7E774
:1031C0000A48406960B10848406910F0005F07D0C4
:1031D0000120FEF7EAFD002004494861032097E73B
:1031E000FF2095E70405001000C0092034230010DB
:1031F0006648C06D40F040006449C8657047634848
:10320000C06D40F020006149C86570475F48C06DDF
:1032100040F010005D49C86570475C48C06940F4E3
:1032200080305A49C86170475848C06940F400402E
:103230005649C86170475648006920F0010054495A
:1032400008615248006C40F040005049086408464C
:10325000806D40F04000886570474D48006920F05F
:1032600001004B4908614948006C40F02000474983
:1032700008640846806D40F0200088657047444827
:10328000006920F00100424908614048006C40F0AC
:1032900010003E4908640846806D40F010008865C3
:1032A00070473B48406820F0010039494860374882
:1032B000006840F48030354908600846806940F471
:1032C0008030886170473248006820F08040304983
:1032D00008602E48006840F400402C490860084609
:1032E000806940F400408861704700B5FFF7EBFF4C
:1032F000FFF7D7FFFFF7C3FFFFF7AFFFFFF79BFF16
:10330000FFF792FFFFF789FFFFF780FFFFF777FFD7
:10331000FFF76EFF00BD1D48806D40F040001B4967
:10332000886570471948806D40F02000174988650E
:1033300070471648806D40F010001449886570474A
:103340001248806940F480301049886170470F4806
:10335000806940F400400D498861704700B5FFF76F
:10336000F6FFFFF7EDFFFFF7E4FFFFF7DBFFFFF7E7
:10337000D2FF00BD00B5FFF757FFFFF74EFFFFF785
:1033800045FFFFF73CFFFFF733FF00BD00C00920FA
:1033900000C00240F44A11547047F349095C491CCB
:1033A000F14A11547047F049095C491EEE4A115424
:1033B00070470146EC48405C7047EC480078401C80
:1033C000EA4908707047E94908707047E748007893
:1033D0007047E74A10707047E5480078401CE449A0
:1033E00008707047E2480078401EE1490870704755
:1033F000DF4800787047DF4908707047DD48007883
:103400007047DD480078401CDB4908707047DA4996
:1034100008707047D84800787047D84908807047CE
:10342000D6480088401CD54908807047D34800889A
:10343000401ED24908807047D04800887047D04964
:1034400008807047CE480088401CCD4908807047EE
:10345000CB480088401ECA4908807047C848008889
:103460007047C84908707047C6480078401CC54975
:1034700008707047C3480078401EC2490870704702
:10348000C04800787047C0480088401CBE4908808A
:103490007047BD480088401EBB4908807047BA4845
:1034A00000887047B84908807047B8480088401CB9
:1034B000B64908807047B5480088401EB349088067
:1034C0007047B24800887047B04908807047B049DB
:1034D00008707047AE480078401CAD4908707047CE
:1034E000AB480078401EAA4908707047A848007889
:1034F0007047A8480078401CA64908707047A54846
:103500000078401EA34908707047A24800787047B1
:10351000A04908707047A049088070479E480088FD
:10352000401C9D49088070479B480088401E9A496E
:1035300008807047984800884FF47A7190FBF1F248
:1035400001FB1200642190FBF1F201FB120000F577
:10355000FA6080B270479149088070478F480088B0
:10356000401C8E49088070478C480088401E8B495B
:103570000880704789480088704789480088401C47
:1035800087490880704786480088401E8449088023
:103590007047834800887047814908807047814997
:1035A000088070477F480088401C7E49088070472B
:1035B0007C480088401E7B49088070477948008815
:1035C000704779490880704777480088401C7649E1
:1035D0000880704774480088401E7349088070470F
:1035E0007148008870477149088070476F480088AB
:1035F000401C6E49088070476C480088401E6B492B
:1036000008807047694800887047694908707047AA
:1036100067480078401C6649087070476448007825
:10362000704764490880704762480088401C6149BF
:10363000088070475F480088401E5E4908807047D8
:103640005C48008870475C49088070475A48008889
:10365000401C59490880704757480088401E564909
:103660000880704754480088704754490870704774
:1036700052480078401C5149087070474F48007804
:1036800070474F480078401C4D49087070474C48BF
:103690000078401E4A4908707047494908707047D1
:1036A00047480078704747480078401C45490870F3
:1036B000704744480078401E4249087070474149AD
:1036C000087070473F48007870473F480078401CBA
:1036D0003D49087070473C480078401E3A490870E0
:1036E0007047394908707047374800787047374845
:1036F0000078401C3549087070473449087070479D
:1037000032480078704732480078401C30490870D1
:1037100070472F480078401E2D49087070472C498B
:10372000087070472A48007870472A480078401C83
:1037300028490870704727480078401E25490870BE
:103740007047244908707047224800787047224823
:103750000078401C2049087070471F490870704766
:103760001D480078704700000C050010100500107F
:103770000F050010110500101705001012050010AC
:103780001405001016050010180500101A05001089
:103790001C0500101D0500101E050010200500105E
:1037A0002205001024050010260500102805001031
:1037B0002A0500102C0500102E0500103005001001
:1037C00031050010320500103305001034050010DB
:1037D000350500103605001037050010F649088041
:1037E0007047F5480088704738B5002407E004F5B5
:1037F000C020FDF772F80DF80400601CC4B2022C62
:10380000F5DB9DF801109DF8002001EB022188B244
:10381000FFF7E4FFFFF7E5FFB0F57A7F02DD002058
:10382000FFF7DCFF38BDE54908707047E3480078D2
:10383000704710B500EB4003E14C04EB83035A548E
:1038400010BD10B500200DE0002108E0FF2200EBC4
:103850004003DB4C04EB83035A544A1CD1B20C29BD
:10386000F4DB401CB0F57A7FEED310BD024602EBCC
:103870004200D34B03EB8000405C7047D148007896
:10388000401CD04908707047CE4908707047CD4839
:103890000078704770B500241AE0002515E004EBAD
:1038A0004402C74B03EB8202515D04EB44029200D9
:1038B00002F580225019FCF7A1FF002601E0701CE0
:1038C000C6B20A2EFBDB681CC5B20C2DE7DB641CFC
:1038D000B4F57A7FE1D370BD70B5002414E0002503
:1038E0000FE004EB4401890001F580214819FCF741
:1038F000F4FF04EB4401B24A02EB81014855681C15
:10390000C5B20C2DEDDB641CB4F57A7FE7D370BD36
:10391000A9480088401CA8490880704738B5002491
:1039200007E004F5C020FCF7D8FF0DF80400601C88
:10393000C4B2022CF5DB9DF801109DF8002001EBCC
:10394000022188B2FFF74AFFFFF74BFFB0F57A7FFD
:1039500002DD0020FFF742FF38BD2DE9F0430446A9
:1039600007AD95E8E01044EA012949EA024949EA2D
:103970000368B8F1000F54D000204FE0DFF8489200
:1039800019F83090B9F1FF0F47D1DFF83C9209EBFD
:10399000C00999F80190B9F1FF0F3ED1DFF82892E4
:1039A00009EBC00999F80290B9F1FF0F35D1DFF8A2
:1039B000189209EBC00999F80390B9F1FF0F2CD1C7
:1039C000DFF8049209F8304009EBC00989F80110CA
:1039D000DFF8F49109EBC00989F80220DFF8E891DB
:1039E00009EBC00989F80330DFF8DC9109EBC00965
:1039F00089F80450DFF8D09109EBC00989F8056017
:103A0000DFF8C49109EBC00989F80670DFF8B891B6
:103A100009EBC00989F807C002E0401C6428ADD357
:103A200000BFBDE8F08310B502460B46002110E050
:103A3000654C04EBC1042479944207D1624C04EB39
:103A4000C10464799C4201D1012004E000204C1C97
:103A5000E1B26429ECDB00BF10BD002000210FE0C3
:103A6000594A02EBC102D279FF2A07DA564A02EB21
:103A7000C102D279002A01DD421CD0B24A1CD1B267
:103A80006429EDDB704702460020002109E04E4B1F
:103A900003EBC1031B79934201D1431CD8B24B1CE9
:103AA000D9B26429F3DB7047474A02F8301002EBC1
:103AB000C0025170444A02EBC0029170424A02EBCC
:103AC000C002D170404A02EBC00211713E4A02EBC3
:103AD000C00251713C4A02EBC00291713A4A02EBBA
:103AE000C002D171704770B54FF48030FCF748FECA
:103AF000002417E0002511E0334A02EBC402515DB7
:103B0000E20002F580325019FCF778FE002601E051
:103B1000701CC6B20A2EFBDB681CC5B2082DEBDB9D
:103B2000601CC4B2642CE5DB70BD70B5002411E0EC
:103B300000250BE0E10001F580314819FCF7CDFECE
:103B4000214901EBC4014855681CC5B2082DF1DBC1
:103B5000601CC4B2642CEBDB70BD00200CE00021C3
:103B600006E0FF22184B03EBC0035A544A1CD1B2A3
:103B70000829F6DB421CD0B26428F0DB704702460D
:103B8000114800EBC200405C704701460E4A12F833
:103B900031200D4B03EBC1035B7842EA03220A4B51
:103BA00003EBC1039B7842EA0342074B03EBC103DB
:103BB000DB7842EA036070473A0500103C050010CC
:103BC000E22E00103D050010C22B001070B5044617
:103BD0000D4600211AE07D4E16F83160A64213D141
:103BE0007A4E06EBC1067678AE420DD1774E06EBE3
:103BF000C106B678964207D1744E06EBC106F67838
:103C00009E4201D1C8B203E04E1CB1B26429E2DB8E
:103C100000BF70BD6E480078401C6D490870704749
:103C20006B49087070476A480078704710B50246C3
:103C30000B4600210FE0654C04EBC104247994424B
:103C400007D1624C04EBC10464799C4201D108465F
:103C500003E04C1CE1B26429EDDB00BF10BD10B5E0
:103C60004FF44030FCF78CFD00240CE004EB8400A2
:103C700000EBC400574A81180D224FF44030FCF786
:103C8000F1FD601CC4B2642CF0DB10BD00210DE01E
:103C900001EB810202EBC1024E4B1A44D278332A67
:103CA00001D1002004E001204A1CD1B26429EFDBDD
:103CB00000BF70470146002001EB810202EBC10208
:103CC000444B1A44D278332A00D116E001EB81022A
:103CD00002EBC1023F4B1A44D278312A01D10020B5
:103CE0000BE001EB810202EBC1023A4B1A44D2789D
:103CF000322A01D1002000E00120704710B500EB0E
:103D0000800303EBC003334C23445A5410BD0246D6
:103D100002EB820000EBC2002E4B1844405C70475F
:103D200010B500200FE0032109E0002200EB800322
:103D300003EBC003274C23445A544A1CD1B20D292B
:103D4000F3DB421CD0B26428EDDB10BD014601EB71
:103D5000810000EBC1001F4A1044407870470146C3
:103D600001EB810000EBC1001A4A1044C078704793
:103D7000194A11547047194A11547047014617489F
:103D8000405C704770B5002411E000250BE0210174
:103D900001F540314819FCF7A0FD114901EBC401C0
:103DA0004855681CC5B2042DF1DB601CC4B2642CFC
:103DB000EBDB70BD02460A4800EBC200405C704776
:103DC000084B03EB001323F811207047C22B00109F
:103DD000380500104C2300109228001060280010B5
:103DE000A2280010B060001010B5002406E02046A4
:103DF000FCF773FD7C490855601CC4B2642CF6D3F3
:103E000010BD794A1154704770B50020FCF7B8FC1A
:103E100000240CE07448015D2046FCF7EFFC00250F
:103E200001E0681CC5B20A2DFBDB601CC4B2642C27
:103E3000F0D370BD01466C48405C704710B500245B
:103E400009E02046FCF749FD6749095D884201D039
:103E500000BFFEE7641C642CF3D310BD70472DE94E
:103E6000F843054605212846FFF789FE80460421D0
:103E70002846FFF784FE81464146FDF798F807463D
:103E8000FFF7AFFC80462A460021FFF7D2FC012154
:103E90002846FFF73CFF8046FFF7A3FC81464246D9
:103EA0000121FFF7C6FC02212846FFF730FF8046BC
:103EB000FFF797FC814642460221FFF7BAFC032137
:103EC0002846FFF724FF8046FFF78BFC81464246D9
:103ED0000321FFF7AEFC04212846FFF718FF8046B8
:103EE000FFF77FFC814642460421FFF7A2FC052133
:103EF0002846FFF70CFF8046FFF773FC81464246D9
:103F00000521FFF796FC06212846FFF700FF8046B3
:103F1000FFF767FC814642460621FFF78AFC07212E
:103F20002846FFF7F4FE8046FFF75BFC81464246D9
:103F30000721FFF77EFC08212846FFF7E8FE8046B0
:103F4000FFF74FFC814642460821FFF772FC09212A
:103F50002846FFF7DCFE8046FFF743FC81464246D9
:103F60000921FFF766FC0A212846FFF7D0FE8046AC
:103F7000FFF737FC814642460A21FFF75AFCFFF75C
:103F800030FC80463A460B21FFF753FCFFF7C0FC9C
:103F9000FFF727FCB0F57A7F02D10020FFF71EFC67
:103FA000FFF71FFC00128DF80000FFF71AFCC0B2EB
:103FB0008DF801004FF4C020FCF7E2FB00240DE077
:103FC0001DF8041004F5C020FCF718FC002601E0E1
:103FD000701CC6B20A2EFBDB601CC4B2022CEFDBE5
:103FE000FFF758FCBDE8F883F0660010FEB5002628
:103FF0000020009001900290002411E0E01CC0B26B
:10400000FFF718FF642803DD00200DF8040005E029
:10401000E01CC0B2FFF70EFF0DF80400601CC4B234
:104020000A2CEBDB002505E01DF805003044C6B284
:10403000681CC5B20A2DF7DB3046FEBD70B50446DC
:1040400000250B2C39D2DFE804F038060B10151AC6
:104050001F24292E33000320FFF7ECFE05462DE038
:104060000420FFF7E7FE054628E00520FFF7E2FE03
:10407000054623E00620FFF7DDFE05461EE007208B
:10408000FFF7D8FE054619E00820FFF7D3FE0546E6
:1040900014E00920FFF7CEFE05460FE00A20FFF7E7
:1040A000C9FE05460AE00B20FFF7C4FE054605E001
:1040B0000C20FFF7BFFE054600E000BF00BF642DE7
:1040C00000DD0025284670BD3248C06D40F0080074
:1040D0003049C865704710B50446012C02D0022C47
:1040E00031D117E0FDF793FD142805DB2948C06D99
:1040F00040F008002749C865FDF789FD232808DB43
:104100000020FDF781FD2348806D40F00800214923
:10411000886519E0FDF77BFD022805DB1D48C06DB1
:1041200040F008001B49C865FDF771FDB0F57A7FC6
:1041300008DB0020FDF768FD1648806D40F00800A0
:104140001449886500E000BF00BF10BD70B504468B
:104150000D460026204604EBD0714E10FDF757FDAA
:10416000B04206DC0B48806D40F0080009498865C4
:104170000EE0FDF74CFD6119884206DC0548C06D74
:1041800040F008000349C86502E00020FDF73CFD4F
:1041900070BD000000C0092010B5FDF78EF9FCF7D6
:1041A000CEFC0020FDF719FE0120FDF716FE0120D0
:1041B0000B490860FDF75AFB10BD10B5FDF785F9F6
:1041C000FCF7C6FC0020FDF7F0FD0120FDF7EDFD3A
:1041D0004FF0807003490860FDF750FB10BD0000F0
:1041E0008C8002409080024010B5FCF7E5F8FDF7A6
:1041F00001FA4FF416610020FDF7D2F84FF4165182
:104200000120FDF7CDF8FEF79EF8FDF7EBFAFDF77C
:1042100007FB1D48FCF75CFCFDF762FE04462146E7
:104220000020FDF7FBFBFDF792FE0446214601202E
:10423000FDF7F4FBFCF79FF9FFF757F8FBF7FAFFE0
:10424000FDF7B4FE00211048FDF7E8FE10BD10B5E3
:1042500001F070FFFFF769FCFFF7C6FD022138206F
:1042600005F0CDFB07F0B8FDFCF776FE06F08EFCFE
:10427000FFF732FB06F0DDFC06F045FDFCF7EFFE34
:10428000FFF7B2FA10BD0000A08601002DE9F04F43
:104290008FB00746884691469A46189D002600240E
:1042A00001200E900D902C22FEA101A809F03AFDEC
:1042B000002F7DD0B8F1000FFBD09DF805009DF8D0
:1042C000041000EB012083B2002211460120FEF70A
:1042D00031F99DF807009DF8061000EB012083B22C
:1042E000102200210120FEF725F90A2320220021B7
:1042F0000120FEF783FA642097FBF0F100FB1170B8
:104300000A2190FBF1F000F0FF0B5B462822002110
:104310000120FEF773FA0A2097FBF0F100FB117001
:1043200000F0FF0B5B46302200210120FEF766FA09
:104330000C23382200210120FEF760FA642098FB4C
:10434000F0F100FB11800A2190FBF1F000F0FF0B6F
:104350005B46002211460220FEF750FA0A2098FB25
:10436000F0F100FB118000F0FF0B5B4608220021FA
:104370000220FEF743FA9DF809009DF8081000EBB3
:10438000012083B2002202210120FEF7D3F89DF81C
:104390000B009DF80A1000EB012083B210220221CD
:1043A0000120FEF7C7F80A2320220221012000E0A5
:1043B0007CE2FEF723FA642099FBF0F000F0FF0B9B
:1043C0005B46282202210120FEF718FA642099FB9F
:1043D000F0F100FB11900A2190FBF1F000F0FF0BCF
:1043E0005B46302202210120FEF708FA0A2099FBE1
:1043F000F0F100FB119000F0FF0B5B463822022128
:104400000120FEF7FBF99DF80D009DF80C1000EB64
:10441000012083B2002202210846FEF78BF89DF8A6
:104420000F009DF80E1000EB012083B21022022134
:104430000846FEF77FF80A23202202210846FEF7ED
:10444000DDF964209AFBF0F000F0FF0B5B462822B8
:1044500002210846FEF7D2F964209AFBF0F100FB36
:1044600011A00A2190FBF1F000F0FF0B5B46302217
:1044700002210846FEF7C2F90A209AFBF0F100FB80
:1044800011A000F0FF0B5B46382202210846FEF720
:10449000B5F9302D18D19DF811009DF8101000EBE2
:1044A000012083B2002204210120FEF743F89DF889
:1044B00013009DF8121000EB012083B2102204219A
:1044C0000120FEF737F8A0E0312D18D19DF8150036
:1044D0009DF8141000EB012083B20022042101207A
:1044E000FEF728F89DF817009DF8161000EB012044
:1044F00083B2102204210120FEF71CF885E0322D42
:1045000018D19DF819009DF8181000EB012083B216
:10451000002204210120FEF70DF89DF81B009DF8F4
:104520001A1000EB012083B2102204210120FEF7B3
:1045300001F86AE0332D18D19DF81D009DF81C107C
:1045400000EB012083B2002204210120FDF7F2FFDD
:104550009DF81F009DF81E1000EB012083B2102271
:1045600004210120FDF7E6FF4FE0342D18D19DF81E
:1045700021009DF8201000EB012083B200220421CD
:104580000120FDF7D7FF9DF823009DF8221000EBD6
:10459000012083B2102204210120FDF7CBFF34E07B
:1045A000352D18D19DF825009DF8241000EB012031
:1045B00083B2002204210120FDF7BCFF9DF82700F3
:1045C0009DF8261000EB012083B210220421012067
:1045D000FDF7B0FF19E0362D17D19DF829009DF8A1
:1045E000281000EB012083B2002204210120FDF7F6
:1045F000A1FF9DF82B009DF82A1000EB012083B24B
:10460000102204210120FDF795FFBDF86A004FF448
:104610007A7190FBF1F201FB1200642190FBF1F240
:1046200001FB12000A2190FBF1F000F0FF0B5B464A
:10463000202204210120FEF7E1F8BDF86A000A21DA
:1046400090FBF1F201FB120000F0FF0B5B46282209
:1046500004210120FEF7D2F89DF869000A2190FBA1
:10466000F1F000F0FF0B5B46302204210120FEF741
:10467000C5F89DF869000A2190FBF1F201FB1200D8
:1046800000F0FF0B5B46382204210120FEF7B6F84C
:104690009DF867000A2190FBF1F000F0FF0B5B46EC
:1046A000002215E0CAD7BEAFBBF0BEAFD7DCCAFD53
:1046B000B8D0D1CCB8D0CEC2CAD6B1A8CFFBB1A8A1
:1046C000CAE4C8EBCAE4B3F6C9F9B9E200000000D5
:1046D00004210220FEF792F89DF867000A2190FB62
:1046E000F1F201FB120000F0FF0B5B4608220421EF
:1046F0000220FEF783F89DF866000A2190FBF1F096
:1047000000F0FF0B5B46102204210220FEF776F832
:104710009DF866000A2190FBF1F201FB120000F007
:10472000FF0B5B46182204210220FEF767F89DF874
:1047300065000A2190FBF1F000F0FF0B5B462022A0
:1047400004210220FEF75AF89DF865000A2190FB2B
:10475000F1F201FB120000F0FF0B5B46282204215E
:104760000220FEF74BF89DF864000A2190FBF1F05F
:1047700000F0FF0B5B46302204210220FEF73EF8DA
:104780009DF864000A2190FBF1F201FB120000F099
:10479000FF0B5B46382204210220FEF72FF841462A
:1047A0003846FCF704FC0C900C9864287EDA002F45
:1047B0007CDDB8F1000FFBDD03210C98FCF7EAFB70
:1047C000302813DB03210C98FCF7E4FB39280DDCBF
:1047D00003210C98FCF7DEFB83465B460022062192
:1047E0000120FEF70BF8042601243AE003210C987F
:1047F000FCF7D0FB612813DB03210C98FCF7CAFB04
:104800007A280DDC03210C98FCF7C4FB83465B4639
:10481000002206210120FDF7BDFF0426012420E02F
:1048200003210C98FCF7B6FBB0281ADB03210C9887
:10483000FCF7B0FBFF2814DA04210C98FCF7AAFB64
:10484000834603210C98FCF7A5FB0BEB002080B2FC
:1048500003460022062100900120FDF76BFE05268D
:1048600002249BE031460C98FCF794FBB02829DB2E
:1048700031460C98FCF78EFBFF2823DA072C05D174
:104880000D98012802D102200D900024701CC1B2A5
:104890000C98FCF77FFB834631460C98FCF77AFBBB
:1048A0000BEB002080B20090E00600E07AE0020E00
:1048B0000621009B0D98FDF73DFEB01CC6B2A01C62
:1048C000C4B25EE031460C98FCF764FB302818DB7C
:1048D00031460C98FCF75EFB392812DC31460C9807
:1048E000FCF758FB303800F0FF0BE006020E5B4689
:1048F00006210D98FDF782FF701CC6B2601CC4B281
:104900003FE031460C98FCF745FB412818DB314667
:104910000C98FCF73FFB5A2812DC31460C98FCF748
:1049200039FB273800F0FF0BE006020E5B4606213C
:104930000D98FDF72FFF701CC6B2601CC4B220E0BA
:1049400031460C98FCF726FB612818DB31460C98A1
:10495000FCF720FB7A2812DC31460C98FCF71AFB96
:10496000613800F0FF0BE006020E5B4606210D9851
:10497000FDF710FF701CC6B2601CC4B201E000203D
:104980000E9031460C98FCF705FB872801D10020DA
:104990000E90082C02DB002402200D900E980028B7
:1049A0007FF460AF0FB0BDE8F08F00002DE9F04F4D
:1049B0008FB00746884691461D46002600240120F8
:1049C0000E900D902C22FEA102A809F0ABF9002F49
:1049D0007DD0B8F1000FFBD09DF809009DF80810BC
:1049E00000EB012083B2002211460120FDF7A2FD59
:1049F0009DF80B009DF80A1000EB012083B21022F5
:104A000000210120FDF796FD9DF80D009DF80C108A
:104A100000EB012083B2202200210120FDF78AFD56
:104A20009DF80F009DF80E1000EB012083B230229C
:104A300000210120FDF77EFD0A23002211460220FD
:104A4000FDF7DCFE642099FBF0F000F0FF0B5B4605
:104A5000082200210220FDF7D1FE642099FBF0F12D
:104A600000FB11900A2190FBF1F000F0FF0B5B4678
:104A7000102200210220FDF7C1FE0A2099FBF0F16F
:104A800000FB119000F0FF0B5B4618220021022072
:104A9000FDF7B4FE9DF811009DF8101000EB012009
:104AA00083B2002202210120FDF744FD9DF813008E
:104AB0009DF8121000EB012083B210220221012088
:104AC000FDF738FD0A2320220221012000E04BE2FD
:104AD000FDF794FE642097FBF0F100FB11700A21B2
:104AE00090FBF1F000F0FF0B5B4628220221012031
:104AF000FDF784FE0A2097FBF0F100FB117000F037
:104B0000FF0B5B46302202210120FDF777FE0C23CC
:104B1000382202210120FDF771FE642098FBF0F19C
:104B200000FB11800A2190FBF1F000F0FF0B5B46C7
:104B3000002202210846FDF761FE0A2098FBF0F1F1
:104B400000FB118000F0FF0B5B46082202210846A3
:104B5000FDF754FE9DF815009DF8141000EB0120A0
:104B600083B2202202210846FDF7E4FC9DF81700DD
:104B70009DF8161000EB012083B230220221084676
:104B8000FDF7D8FC012D18D19DF819009DF81810DB
:104B900000EB012083B2002204210120FDF7CAFCB2
:104BA0009DF81B009DF81A1000EB012083B2102223
:104BB00004210120FDF7BEFC85E0022D18D19DF8EF
:104BC0001D009DF81C1000EB012083B2002204217F
:104BD0000120FDF7AFFC9DF81F009DF81E1000EBB3
:104BE000012083B2102204210120FDF7A3FC6AE01A
:104BF000032D18D19DF821009DF8201000EB012015
:104C000083B2002204210120FDF794FC9DF82300CB
:104C10009DF8221000EB012083B210220421012014
:104C2000FDF788FC4FE0042D18D19DF825009DF874
:104C3000241000EB012083B2002204210120FDF7A3
:104C400079FC9DF827009DF8261000EB012083B227
:104C5000102204210120FDF76DFC34E0052D18D150
:104C60009DF829009DF8281000EB012083B2002256
:104C700004210120FDF75EFC9DF82B009DF82A1011
:104C800000EB012083B2102204210120FDF752FC29
:104C900019E0062D17D19DF82D009DF82C1000EB82
:104CA000012083B2002204210120FDF743FC9DF87E
:104CB0002F009DF82E1000EB012083B2102204215A
:104CC0000120FDF737FCBDF866004FF47A7190FBC8
:104CD000F1F201FB1200642190FBF1F201FB1200E2
:104CE0000A2190FBF1F000F0FF0B5B46202204212B
:104CF0000120FDF783FDBDF866000A2190FBF1F26B
:104D000001FB120000F0FF0B5B462822042101206A
:104D1000FDF774FD9DF865000A2190FBF1F000F0AD
:104D2000FF0B5B46302204210120FDF767FD9DF853
:104D300065000A2190FBF1F201FB120000F0FF0B6D
:104D40005B46382204210120FDF758FD9DF86300E1
:104D50000A2190FBF1F000F0FF0B5B4600220421DA
:104D60000220FDF74BFD9DF863000A2190FBF1F254
:104D700001FB120000F0FF0B5B4608220421022019
:104D8000FDF73CFD9DF862000A2190FBF1F000F078
:104D9000FF0B5B46102204210220FDF72FFD9DF83A
:104DA00062000A2190FBF1F201FB120000F0FF0B00
:104DB0005B46182204210220FDF720FD16E00000CA
:104DC000B9CAD5CFD7DCCAFDB9CAD5CFC7B7D1B913
:104DD000B8D0D1CCB8D0CEC2CAD6B1A8CAE4C8EB3C
:104DE000CAE4B3F6C9F9B9E2000000009DF8610019
:104DF0000A2190FBF1F000F0FF0B5B46202204211A
:104E00000220FDF7FBFC9DF861000A2190FBF1F206
:104E100001FB120000F0FF0B5B4628220421022058
:104E2000FDF7ECFC9DF860000A2190FBF1F000F02A
:104E3000FF0B5B46302204210220FDF7DFFC9DF8CA
:104E400060000A2190FBF1F201FB120000F0FF0B61
:104E50005B46382204210220FDF7D0FC414638464B
:104E6000FCF7A5F88246BAF1640F7DDA002F7BDDEE
:104E7000B8F1000FFBDD03215046FCF78BF830281A
:104E800013DB03215046FCF785F839280DDC03219C
:104E90005046FCF77FF883465B460022062101203E
:104EA000FDF7ACFC042601243AE003215046FCF750
:104EB00071F8612813DB03215046FCF76BF87A2860
:104EC0000DDC03215046FCF765F883465B46002263
:104ED00006210120FDF75EFC0426012420E00321C9
:104EE0005046FCF757F8B0281ADB03215046FCF770
:104EF00051F8FF2814DA04215046FCF74BF883469A
:104F000003215046FCF746F80BEB002080B2034625
:104F10000022062101900120FDF70CFB052602244A
:104F20009BE031465046FCF735F8B02829DB314686
:104F30005046FCF72FF8FF2823DA072C05D10D98EF
:104F4000012802D102200D900024701CC1B25046ED
:104F5000FCF720F8834631465046FCF71BF80BEB74
:104F6000002080B2019000E07BE0E006020E062106
:104F7000019B0D98FDF7DEFAB01CC6B2A01CC4B2AE
:104F80005EE031465046FCF705F8302818DB314624
:104F90005046FBF7FFFF392812DC31465046FBF73D
:104FA000F9FF303800F0FF0BE006020E5B460621E9
:104FB0000D98FDF723FC701CC6B2601CC4B23FE024
:104FC00031465046FBF7E6FF412818DB3146504694
:104FD000FBF7E0FF5A2812DC31465046FBF7DAFFB8
:104FE000273800F0FF0BE006020E5B4606210D9805
:104FF000FDF7D0FB701CC6B2601CC4B220E0314685
:105000005046FBF7C7FF612818DB31465046FBF7D7
:10501000C1FF7A2812DC31465046FBF7BBFF6138EE
:1050200000F0FF0BE006020E5B4606210D98FDF72F
:10503000B1FB701CC6B2601CC4B201E000200E902F
:1050400031465046FBF7A6FF872801D100200E907D
:10505000082C02DB002402200D900E9800287FF41B
:1050600060AF0FB0BDE8F08F2DE9F04F8DB007466F
:10507000884691461D460026002401200C900B9086
:105080002822FEA101A808F04DFE002F7DD0B8F126
:10509000000FFBD09DF805009DF8041000EB0120E7
:1050A00083B2002211460120FDF744FA9DF8070063
:1050B0009DF8061000EB012083B210220021012090
:1050C000FDF738FA9DF809009DF8081000EB012063
:1050D00083B2202200210120FDF72CFA9DF80B005D
:1050E0009DF80A1000EB012083B23022002101203C
:1050F000FDF720FA0A23002211460220FDF77EFB6D
:10510000642099FBF0F000F0FF0B5B4608220021C1
:105110000220FDF773FB642099FBF0F100FB119076
:105120000A2190FBF1F000F0FF0B5B4610220021FA
:105130000220FDF763FB0A2099FBF0F100FB1190C0
:1051400000F0FF0B5B46182200210220FDF756FB02
:105150009DF805009DF8041000EB012083B20022A9
:1051600002210120FDF7E6F99DF807009DF80610E1
:1051700000EB012083B2102202210120FDF7DAF9B1
:105180000A2320220221012000E049E2FDF736FB3C
:10519000642097FBF0F100FB11700A2190FBF1F005
:1051A00000F0FF0B5B46282202210120FDF726FBC1
:1051B0000A2097FBF0F100FB117000F0FF0B5B463B
:1051C000302202210120FDF719FB0C233822022195
:1051D0000120FDF713FB642098FBF0F100FB118028
:1051E0000A2190FBF1F000F0FF0B5B460022022148
:1051F0000846FDF703FB0A2098FBF0F100FB118045
:1052000000F0FF0B5B46082202210846FDF7F6FA84
:105210009DF80D009DF80C1000EB012083B22022B8
:1052200002210846FDF786F99DF80F009DF80E1043
:1052300000EB012083B2302202210846FDF77AF903
:10524000012D18D19DF811009DF8101000EB0120E0
:1052500083B2002204210120FDF76CF99DF81300B0
:105260009DF8121000EB012083B2102204210120CE
:10527000FDF760F985E0022D18D19DF815009DF825
:10528000141000EB012083B2002204210120FDF75D
:1052900051F99DF817009DF8161000EB012083B21C
:1052A000102204210120FDF745F96AE0032D18D1F1
:1052B0009DF819009DF8181000EB012083B2002220
:1052C00004210120FDF736F99DF81B009DF81A1006
:1052D00000EB012083B2102204210120FDF72AF9FE
:1052E0004FE0042D18D19DF81D009DF81C1000EB17
:1052F000012083B2002204210120FDF71BF99DF853
:105300001F009DF81E1000EB012083B21022042123
:105310000120FDF70FF934E0052D18D19DF821008B
:105320009DF8201000EB012083B20022042101200F
:10533000FDF700F99DF823009DF8221000EB0120F5
:1053400083B2102204210120FDF7F4F819E0062DA4
:1053500017D19DF825009DF8241000EB012083B2A1
:10536000002204210120FDF7E5F89DF827009DF8B3
:10537000261000EB012083B2102204210120FDF74A
:10538000D9F8BDF85E004FF47A7190FBF1F201FBA1
:105390001200642190FBF1F201FB12000A2190FB44
:1053A000F1F000F0FF0B5B46202204210120FDF705
:1053B00025FABDF85E000A2190FBF1F201FB120014
:1053C00000F0FF0B5B46282204210120FDF716FAAE
:1053D0009DF85D000A2190FBF1F000F0FF0B5B46A9
:1053E000302204210120FDF709FA9DF85D000A2111
:1053F00090FBF1F201FB120000F0FF0B5B4638223C
:1054000004210120FDF7FAF99DF85B000A2190FBC9
:10541000F1F000F0FF0B5B46002204210220FDF7B3
:10542000EDF99DF85B000A2190FBF1F201FB1200FF
:1054300000F0FF0B5B46082204210220FDF7DEF995
:105440009DF85A000A2190FBF1F000F0FF0B5B463B
:10545000102204210220FDF7D1F99DF85A000A21FB
:1054600090FBF1F201FB120000F0FF0B5B461822EB
:1054700004210220FDF7C2F914E00000B9CAD5CF1B
:10548000D7DCCAFDC6E4CBFBB8D0D1CCB8D0CEC2F5
:10549000CAD6B1A8CAE4C8EBCAE4B3F6C9F9B9E2FE
:1054A000000000009DF859000A2190FBF1F000F087
:1054B000FF0B5B46202204210220FDF79FF99DF897
:1054C00059000A2190FBF1F201FB120000F0FF0BE2
:1054D0005B46282204210220FDF790F99DF8580030
:1054E0000A2190FBF1F000F0FF0B5B463022042113
:1054F0000220FDF783F99DF858000A2190FBF1F294
:1055000001FB120000F0FF0B5B4638220421022051
:10551000FDF774F941463846FBF749FD8246BAF17A
:10552000640F7DDA002F7BDDB8F1000FFBDD032176
:105530005046FBF72FFD302813DB03215046FBF7C5
:1055400029FD39280DDC03215046FBF723FD834656
:105550005B46002206210120FDF750F904260124B4
:105560003AE003215046FBF715FD612813DB0321C8
:105570005046FBF70FFD7A280DDC03215046FBF760
:1055800009FD83465B46002206210120FDF702F952
:105590000426012420E003215046FBF7FBFCB02841
:1055A0001ADB03215046FBF7F5FCFF2814DA04212F
:1055B0005046FBF7EFFC834603215046FBF7EAFC1D
:1055C0000BEB002080B20346002206210090012050
:1055D000FCF7B0FF052602249BE031465046FBF75E
:1055E000D9FCB02829DB31465046FBF7D3FCFF2815
:1055F00023DA072C05D10B98012802D102200B9049
:105600000024701CC1B25046FBF7C4FC83463146EF
:105610005046FBF7BFFC0BEB002080B2009000E08F
:105620007BE0E006020E0621009B0B98FCF782FF50
:10563000B01CC6B2A01CC4B25EE031465046FBF7B7
:10564000A9FC302818DB31465046FBF7A3FC39286B
:1056500012DC31465046FBF79DFC303800F0FF0B62
:10566000E006020E5B4606210B98FDF7C7F8701C9A
:10567000C6B2601CC4B23FE031465046FBF78AFC1C
:10568000412818DB31465046FBF784FC5A2812DCCF
:1056900031465046FBF77EFC273800F0FF0BE00652
:1056A000020E5B4606210B98FDF774F8701CC6B21B
:1056B000601CC4B220E031465046FBF76BFC612809
:1056C00018DB31465046FBF765FC7A2812DC314680
:1056D0005046FBF75FFC613800F0FF0BE006020E5E
:1056E0005B4606210B98FDF755F8701CC6B2601C8E
:1056F000C4B201E000200C9031465046FBF74AFC52
:10570000872801D100200C90082C02DB0024022005
:105710000B900C9800287FF460AF0DB0BDE8F08FBF
:1057200010B588B004461C2269A101A808F0FAFA55
:10573000012C06D100231A4619460120FCF7D3FF9D
:1057400010E0022C06D100231A4602210120FCF7AA
:10575000CAFF07E0032C05D100231A4604210120CB
:10576000FCF7C1FF01230A2200211846FDF746F885
:105770000A23122200210120FDF740F89DF80500C0
:105780009DF8041000EB012083B2202200210120AB
:10579000FCF7D0FE9DF807009DF8061000EB0120F5
:1057A00083B2302200210120FCF7C4FE9DF80900DD
:1057B0009DF8081000EB012083B200221146022060
:1057C000FCF7B8FE9DF80B009DF80A1000EB0120D5
:1057D00083B2102200210220FCF7ACFE02230A2231
:1057E00019460120FDF70AF80A231222022101209E
:1057F000FDF704F89DF80D009DF80C1000EB01205A
:1058000083B2202202210120FCF794FE9DF80F00B4
:105810009DF80E1000EB012083B2302202210120FE
:10582000FCF788FE9DF811009DF8101000EB012098
:1058300083B2002202210846FCF77CFE9DF813008B
:105840009DF8121000EB012083B2102202210846BD
:10585000FCF770FE03230A2204210120FCF7CEFF8F
:105860000A23122204210120FCF7C8FF9DF815002D
:105870009DF8141000EB012083B2202204210120A6
:10588000FCF758FE9DF817009DF8161000EB01205C
:1058900083B2302204210120FCF74CFE9DF8190050
:1058A0009DF8181000EB012083B200220421022091
:1058B000FCF740FE9DF81B009DF81A1000EB01203C
:1058C00083B2102204210220FCF734FE08B010BD80
:1058D000CFB5CDB3B2E9D1AFB2BFBCFED7B4CCAC7B
:1058E000C0FACAB7BCC7C2BC0000000010B58CB07B
:1058F00004462C22F7A101A808F014FA012C06D1C5
:1059000000231A4619460120FCF7EDFE34E0022C74
:1059100006D100231A4602210120FCF7E4FE2BE009
:10592000032C06D100231A4604210120FCF7DBFEDC
:1059300022E0042C06D100231A4606210120FCF7A0
:10594000D2FE19E0052C06D100231A461946012083
:10595000FCF7C9FE10E0062C06D100231A460221EE
:105960000120FCF7C0FE07E0072C05D100231A46F2
:1059700004210120FCF7B7FE052C7CDA01230A2262
:1059800000211846FCF73AFF0A23122200210120C9
:10599000FCF734FF9DF805009DF8041000EB012092
:1059A00083B2202200210120FCF7C4FD9DF80700EE
:1059B0009DF8061000EB012083B230220021012067
:1059C000FCF7B8FD02230A2219460120FCF716FF56
:1059D0000A23122202210120FCF710FF9DF8090082
:1059E0009DF8081000EB012083B220220221012043
:1059F000FCF7A0FD9DF80B009DF80A1000EB0120BC
:105A000083B2302202210120FCF794FD03230A22F5
:105A100004210120FCF7F2FE0A23122204210120B6
:105A2000FCF7ECFE9DF80D009DF80C1000EB01203A
:105A300083B2202204210120FCF77CFD9DF80F0099
:105A40009DF80E1000EB012083B2302204210120CA
:105A5000FCF770FD04230A2206210120FCF7CEFE8C
:105A60000A23122206210120FCF7C8FE9DF811002E
:105A70009DF8101000E014E000EB012083B220221A
:105A800006210120FCF756FD9DF813009DF8121029
:105A900000EB012083B2302206210120FCF74AFDF1
:105AA00083E005230A2200210120FCF7A7FE0A2338
:105AB000122200210120FCF7A1FE9DF815009DF89F
:105AC000141000EB012083B2202200210120FCF7FA
:105AD00031FD9DF817009DF8161000EB012083B2F0
